{
  "transactions": [
    {
      "hash": "0x8e5c53cde3ba0f09d469e8a9f0022cb730872d924979f848d40f4d8b6ca6ca3c",
      "transactionType": "CALL",
      "contractName": null,
      "contractAddress": "0xcb38f6970054d326ecc89ef248625b528ffcaa5f",
      "function": "setVkHash(bytes32)",
      "arguments": [
        "0x106c40737c1f299b5a224732e2a693eeac776f5cee1d471504d7c27e38330e9d"
      ],
      "transaction": {
        "from": "0xab505717cd22bd07a0b2ea990ac253adcd13b5e8",
        "to": "0xcb38f6970054d326ecc89ef248625b528ffcaa5f",
        "gas": "0x9d3d",
        "value": "0x0",
        "input": "0x7859f6d9106c40737c1f299b5a224732e2a693eeac776f5cee1d471504d7c27e38330e9d",
        "nonce": "0xb",
        "chainId": "0x61"
      },
      "additionalContracts": [],
      "isFixedGasLimit": false
    }
  ],
  "receipts": [
    {
      "status": "0x1",
      "cumulativeGasUsed": "0xf98f",
      "logs": [],
      "logsBloom": "0x00000000000000000000000000000000000000000000000000000000000000000000000000000000000000000000000000000000000000000000000000000000000000000000000000000000000000000000000000000000000000000000000000000000000000000000000000000000000000000000000000000000000000000000000000000000000000000000000000000000000000000000000000000000000000000000000000000000000000000000000000000000000000000000000000000000000000000000000000000000000000000000000000000000000000000000000000000000000000000000000000000000000000000000000000000000",
      "type": "0x0",
      "transactionHash": "0x8e5c53cde3ba0f09d469e8a9f0022cb730872d924979f848d40f4d8b6ca6ca3c",
      "transactionIndex": "0x1",
      "blockHash": "0xd1c1be4822152970cf8a87ccc712aad2da9d0afba1f42cbdb47b6b06d6de7d6b",
      "blockNumber": "0x2a42210",
      "gasUsed": "0x71d7",
      "effectiveGasPrice": "0x142578800",
      "from": "0xab505717cd22bd07a0b2ea990ac253adcd13b5e8",
      "to": "0xcb38f6970054d326ecc89ef248625b528ffcaa5f",
      "contractAddress": null
    }
  ],
  "libraries": [],
  "pending": [],
  "returns": {},
  "timestamp": 1727653881,
  "chain": 97,
  "commit": "9542ba8"
}