{
  "transactions": [
    {
      "hash": "0xb09650834611b17b83eb7ca257217224b63ad00e485355a131b9fe259dd0e174",
      "transactionType": "CALL",
      "contractName": null,
      "contractAddress": "0xcb38f6970054d326ecc89ef248625b528ffcaa5f",
      "function": "setVkHash(bytes32)",
      "arguments": [
        "0x0ea053cbff6fd003b94c92378d266a3e5a54f994873354575594fcc7f75180e2"
      ],
      "transaction": {
        "from": "0xab505717cd22bd07a0b2ea990ac253adcd13b5e8",
        "to": "0xcb38f6970054d326ecc89ef248625b528ffcaa5f",
        "gas": "0x9d3d",
        "value": "0x0",
        "input": "0x7859f6d90ea053cbff6fd003b94c92378d266a3e5a54f994873354575594fcc7f75180e2",
        "nonce": "0xa",
        "chainId": "0x61"
      },
      "additionalContracts": [],
      "isFixedGasLimit": false
    }
  ],
  "receipts": [
    {
      "status": "0x1",
      "cumulativeGasUsed": "0x23219",
      "logs": [],
      "logsBloom": "0x00000000000000000000000000000000000000000000000000000000000000000000000000000000000000000000000000000000000000000000000000000000000000000000000000000000000000000000000000000000000000000000000000000000000000000000000000000000000000000000000000000000000000000000000000000000000000000000000000000000000000000000000000000000000000000000000000000000000000000000000000000000000000000000000000000000000000000000000000000000000000000000000000000000000000000000000000000000000000000000000000000000000000000000000000000000",
      "type": "0x0",
      "transactionHash": "0xb09650834611b17b83eb7ca257217224b63ad00e485355a131b9fe259dd0e174",
      "transactionIndex": "0x1",
      "blockHash": "0xb3459063a061c628a37152a03c1e8c063e396a2b9bbc006936a368fbf3d26c1b",
      "blockNumber": "0x2a42201",
      "gasUsed": "0x71d7",
      "effectiveGasPrice": "0x142578800",
      "from": "0xab505717cd22bd07a0b2ea990ac253adcd13b5e8",
      "to": "0xcb38f6970054d326ecc89ef248625b528ffcaa5f",
      "contractAddress": null
    }
  ],
  "libraries": [],
  "pending": [],
  "returns": {},
  "timestamp": 1727653834,
  "chain": 97,
  "commit": "9542ba8"
}