{
  "transactions": [
    {
      "hash": "0xf4a4564144b074b24cd7af7ae9eda9444710771177ca2f441f7fdaeec2621000",
      "transactionType": "CALL",
      "contractName": null,
      "contractAddress": "0xcb38f6970054d326ecc89ef248625b528ffcaa5f",
      "function": "setVkHash(bytes32)",
      "arguments": [
        "0x08a237e908de7d24def089252247c36580877a1776338eb6a9c6170a5a187fda"
      ],
      "transaction": {
        "from": "0xab505717cd22bd07a0b2ea990ac253adcd13b5e8",
        "to": "0xcb38f6970054d326ecc89ef248625b528ffcaa5f",
        "gas": "0x1082d",
        "value": "0x0",
        "input": "0x7859f6d908a237e908de7d24def089252247c36580877a1776338eb6a9c6170a5a187fda",
        "nonce": "0x8",
        "chainId": "0x61"
      },
      "additionalContracts": [],
      "isFixedGasLimit": false
    }
  ],
  "receipts": [
    {
      "status": "0x1",
      "cumulativeGasUsed": "0x5b94b",
      "logs": [],
      "logsBloom": "0x00000000000000000000000000000000000000000000000000000000000000000000000000000000000000000000000000000000000000000000000000000000000000000000000000000000000000000000000000000000000000000000000000000000000000000000000000000000000000000000000000000000000000000000000000000000000000000000000000000000000000000000000000000000000000000000000000000000000000000000000000000000000000000000000000000000000000000000000000000000000000000000000000000000000000000000000000000000000000000000000000000000000000000000000000000000",
      "type": "0x0",
      "transactionHash": "0xf4a4564144b074b24cd7af7ae9eda9444710771177ca2f441f7fdaeec2621000",
      "transactionIndex": "0x1",
      "blockHash": "0xcc015cbbf8d1edb864f6963370d092f920da3ff35d5f07f1cc735f8eeb005d9f",
      "blockNumber": "0x2a41d74",
      "gasUsed": "0xb4a3",
      "effectiveGasPrice": "0x142578800",
      "from": "0xab505717cd22bd07a0b2ea990ac253adcd13b5e8",
      "to": "0xcb38f6970054d326ecc89ef248625b528ffcaa5f",
      "contractAddress": null
    }
  ],
  "libraries": [],
  "pending": [],
  "returns": {},
  "timestamp": 1727650341,
  "chain": 97,
  "commit": "9542ba8"
}